{
  "contractName": "HotelReview",
  "abi": [
    {
      "constant": true,
      "inputs": [],
      "name": "hotelsCount",
      "outputs": [
        {
          "name": "",
          "type": "uint256"
        }
      ],
      "payable": false,
      "stateMutability": "view",
      "type": "function"
    },
    {
      "constant": true,
      "inputs": [
        {
          "name": "",
          "type": "address"
        }
      ],
      "name": "users",
      "outputs": [
        {
          "name": "",
          "type": "bool"
        }
      ],
      "payable": false,
      "stateMutability": "view",
      "type": "function"
    },
    {
      "constant": true,
      "inputs": [
        {
          "name": "",
          "type": "uint256"
        }
      ],
      "name": "hotels",
      "outputs": [
        {
          "name": "id",
          "type": "uint256"
        },
        {
          "name": "reviewCount",
          "type": "uint256"
        },
        {
          "name": "reviewSum",
          "type": "uint256"
        }
      ],
      "payable": false,
      "stateMutability": "view",
      "type": "function"
    },
    {
      "inputs": [],
      "payable": false,
      "stateMutability": "nonpayable",
      "type": "constructor"
    },
    {
      "anonymous": false,
      "inputs": [
        {
          "indexed": true,
          "name": "_id",
          "type": "uint256"
        },
        {
          "indexed": false,
          "name": "_currentReview",
          "type": "uint256"
        }
      ],
      "name": "reviewEvent",
      "type": "event"
    },
    {
      "constant": false,
      "inputs": [
        {
          "name": "_id",
          "type": "uint256"
        },
        {
          "name": "_currentReview",
          "type": "uint256"
        }
      ],
      "name": "review",
      "outputs": [],
      "payable": false,
      "stateMutability": "nonpayable",
      "type": "function"
    }
  ],
  "bytecode": "0x608060405234801561001057600080fd5b5061002a6001610093640100000000026401000000009004565b6100436002610093640100000000026401000000009004565b61005c6003610093640100000000026401000000009004565b6100756004610093640100000000026401000000009004565b61008e6005610093640100000000026401000000009004565b6100fb565b600260008154809291906001019190505550606060405190810160405280828152602001600081526020016000815250600080600254815260200190815260200160002060008201518160000155602082015181600101556040820151816002015590505050565b6103318061010a6000396000f300608060405260043610610062576000357c0100000000000000000000000000000000000000000000000000000000900463ffffffff16806322bda5c214610067578063a87430ba14610092578063cd338265146100ed578063dc4966111461013c575b600080fd5b34801561007357600080fd5b5061007c610173565b6040518082815260200191505060405180910390f35b34801561009e57600080fd5b506100d3600480360381019080803573ffffffffffffffffffffffffffffffffffffffff169060200190929190505050610179565b604051808215151515815260200191505060405180910390f35b3480156100f957600080fd5b5061011860048036038101908080359060200190929190505050610199565b60405180848152602001838152602001828152602001935050505060405180910390f35b34801561014857600080fd5b5061017160048036038101908080359060200190929190803590602001909291905050506101c3565b005b60025481565b60016020528060005260406000206000915054906101000a900460ff1681565b60006020528060005260406000206000915090508060000154908060010154908060020154905083565b600160003373ffffffffffffffffffffffffffffffffffffffff1673ffffffffffffffffffffffffffffffffffffffff16815260200190815260200160002060009054906101000a900460ff1615151561021c57600080fd5b60018060003373ffffffffffffffffffffffffffffffffffffffff1673ffffffffffffffffffffffffffffffffffffffff16815260200190815260200160002060006101000a81548160ff0219169083151502179055506000808381526020019081526020016000206001016000815480929190600101919050555080600080848152602001908152602001600020600201540160008084815260200190815260200160002060020181905550817fc38bfce80962a37c44a1c075046c8e4a8641f371eb5b240ed5ed23c7ee58d210826040518082815260200191505060405180910390a250505600a165627a7a72305820dd67a1ba98de09c2bf1af20e6b84c98789872dd069b40c653698edfeafc6d96d0029",
  "source": "pragma solidity ^0.4.2;\n\ncontract HotelReview{\n    // Model a Hotel\n    struct Hotel {\n        uint id;\n        uint reviewCount;\n        uint reviewSum;\n    }\n\n    // Store Hotel\n    // Fetch Hotel\n    mapping(uint  => Hotel) public hotels;\n\n\n    // Store users that have reviewed\n    mapping(address => bool) public users;\n\n    // Store Hotels Count\n    uint public hotelsCount;\n\n    // voted event\n    event reviewEvent (\n        uint indexed _id, uint _currentReview );\n\n    function HotelReview () public {\n        addHotel(1);\n        addHotel(2);\n        addHotel(3);\n        addHotel(4);\n        addHotel(5);\n    }\n\n    function addHotel (uint _id) private {\n        hotelsCount ++;\n        hotels[hotelsCount] = Hotel(_id,0,0);\n    }\n\n\n    function review (uint _id, uint _currentReview) public {\n        //tring addr = msg.sender;\n                // require that they haven't voted before\n        \n\n        require(!users[msg.sender]);\n\n        // require a valid candidate\n        //require(_candidateId > 0 && _candidateId <= candidatesCount);\n\n        // record that voter has voted\n    \n        users[msg.sender] = true;\n\n        // update candidate vote Count\n        hotels[_id].reviewCount ++;\n        hotels[_id].reviewSum = (hotels[_id].reviewSum  + _currentReview);\n\n        //hotels[_id].avgReview = (_currentReview + hotels[_id].avgReview)/hotels[_id].reviewCount;\n        //hotels[_id].reviewAverage = ( _currentReview + hotels[_id].reviewAverage ) / hotels[_id].reviewCount;\n\n        // trigger voted event\n        reviewEvent(_id, _currentReview);\n    }\n}\n",
  "sourcePath": "/Users/ychauhan/Downloads/Hotel_Review_Trust_Platform/contracts/HotelReview.sol",
  "compiler": {
    "name": "solc",
    "version": "0.4.24+commit.e67f0147.Emscripten.clang"
  },
  "schemaVersion": "2.0.1",
  "updatedAt": "2018-11-15T13:49:28.146Z"
}